{
  "contractName": "Dex",
  "abi": [
    {
      "inputs": [],
      "stateMutability": "nonpayable",
      "type": "constructor"
    },
    {
      "anonymous": false,
      "inputs": [
        {
          "indexed": false,
          "internalType": "uint256",
          "name": "tradeId",
          "type": "uint256"
        },
        {
          "indexed": false,
          "internalType": "uint256",
          "name": "orderId",
          "type": "uint256"
        },
        {
          "indexed": true,
          "internalType": "bytes32",
          "name": "ticker",
          "type": "bytes32"
        },
        {
          "indexed": true,
          "internalType": "address",
          "name": "trader1",
          "type": "address"
        },
        {
          "indexed": true,
          "internalType": "address",
          "name": "trader2",
          "type": "address"
        },
        {
          "indexed": false,
          "internalType": "uint256",
          "name": "amount",
          "type": "uint256"
        },
        {
          "indexed": false,
          "internalType": "uint256",
          "name": "price",
          "type": "uint256"
        },
        {
          "indexed": false,
          "internalType": "uint256",
          "name": "date",
          "type": "uint256"
        }
      ],
      "name": "NewTrade",
      "type": "event"
    },
    {
      "inputs": [],
      "name": "admin",
      "outputs": [
        {
          "internalType": "address",
          "name": "",
          "type": "address"
        }
      ],
      "stateMutability": "view",
      "type": "function",
      "constant": true
    },
    {
      "inputs": [],
      "name": "nextOrderId",
      "outputs": [
        {
          "internalType": "uint256",
          "name": "",
          "type": "uint256"
        }
      ],
      "stateMutability": "view",
      "type": "function",
      "constant": true
    },
    {
      "inputs": [],
      "name": "nextTradeId",
      "outputs": [
        {
          "internalType": "uint256",
          "name": "",
          "type": "uint256"
        }
      ],
      "stateMutability": "view",
      "type": "function",
      "constant": true
    },
    {
      "inputs": [
        {
          "internalType": "bytes32",
          "name": "",
          "type": "bytes32"
        },
        {
          "internalType": "uint256",
          "name": "",
          "type": "uint256"
        },
        {
          "internalType": "uint256",
          "name": "",
          "type": "uint256"
        }
      ],
      "name": "orderBook",
      "outputs": [
        {
          "internalType": "uint256",
          "name": "id",
          "type": "uint256"
        },
        {
          "internalType": "address",
          "name": "trader",
          "type": "address"
        },
        {
          "internalType": "enum Dex.Side",
          "name": "side",
          "type": "uint8"
        },
        {
          "internalType": "bytes32",
          "name": "ticker",
          "type": "bytes32"
        },
        {
          "internalType": "uint256",
          "name": "amount",
          "type": "uint256"
        },
        {
          "internalType": "uint256",
          "name": "filled",
          "type": "uint256"
        },
        {
          "internalType": "uint256",
          "name": "price",
          "type": "uint256"
        },
        {
          "internalType": "uint256",
          "name": "date",
          "type": "uint256"
        }
      ],
      "stateMutability": "view",
      "type": "function",
      "constant": true
    },
    {
      "inputs": [
        {
          "internalType": "uint256",
          "name": "",
          "type": "uint256"
        }
      ],
      "name": "tokenList",
      "outputs": [
        {
          "internalType": "bytes32",
          "name": "",
          "type": "bytes32"
        }
      ],
      "stateMutability": "view",
      "type": "function",
      "constant": true
    },
    {
      "inputs": [
        {
          "internalType": "bytes32",
          "name": "",
          "type": "bytes32"
        }
      ],
      "name": "tokens",
      "outputs": [
        {
          "internalType": "bytes32",
          "name": "ticker",
          "type": "bytes32"
        },
        {
          "internalType": "address",
          "name": "tokenAddress",
          "type": "address"
        }
      ],
      "stateMutability": "view",
      "type": "function",
      "constant": true
    },
    {
      "inputs": [
        {
          "internalType": "address",
          "name": "",
          "type": "address"
        },
        {
          "internalType": "bytes32",
          "name": "",
          "type": "bytes32"
        }
      ],
      "name": "traderBalances",
      "outputs": [
        {
          "internalType": "uint256",
          "name": "",
          "type": "uint256"
        }
      ],
      "stateMutability": "view",
      "type": "function",
      "constant": true
    },
    {
      "inputs": [
        {
          "internalType": "bytes32",
          "name": "ticker",
          "type": "bytes32"
        },
        {
          "internalType": "address",
          "name": "tokenAddress",
          "type": "address"
        }
      ],
      "name": "addToken",
      "outputs": [],
      "stateMutability": "nonpayable",
      "type": "function"
    },
    {
      "inputs": [],
      "name": "getTokens",
      "outputs": [
        {
          "components": [
            {
              "internalType": "bytes32",
              "name": "ticker",
              "type": "bytes32"
            },
            {
              "internalType": "address",
              "name": "tokenAddress",
              "type": "address"
            }
          ],
          "internalType": "struct Dex.Token[]",
          "name": "",
          "type": "tuple[]"
        }
      ],
      "stateMutability": "view",
      "type": "function",
      "constant": true
    },
    {
      "inputs": [
        {
          "internalType": "uint256",
          "name": "amount",
          "type": "uint256"
        },
        {
          "internalType": "bytes32",
          "name": "ticker",
          "type": "bytes32"
        }
      ],
      "name": "deposit",
      "outputs": [],
      "stateMutability": "nonpayable",
      "type": "function"
    },
    {
      "inputs": [
        {
          "internalType": "uint256",
          "name": "amount",
          "type": "uint256"
        },
        {
          "internalType": "bytes32",
          "name": "ticker",
          "type": "bytes32"
        }
      ],
      "name": "withdraw",
      "outputs": [],
      "stateMutability": "nonpayable",
      "type": "function"
    },
    {
      "inputs": [
        {
          "internalType": "bytes32",
          "name": "ticker",
          "type": "bytes32"
        },
        {
          "internalType": "enum Dex.Side",
          "name": "side",
          "type": "uint8"
        }
      ],
      "name": "getOrders",
      "outputs": [
        {
          "components": [
            {
              "internalType": "uint256",
              "name": "id",
              "type": "uint256"
            },
            {
              "internalType": "address",
              "name": "trader",
              "type": "address"
            },
            {
              "internalType": "enum Dex.Side",
              "name": "side",
              "type": "uint8"
            },
            {
              "internalType": "bytes32",
              "name": "ticker",
              "type": "bytes32"
            },
            {
              "internalType": "uint256",
              "name": "amount",
              "type": "uint256"
            },
            {
              "internalType": "uint256",
              "name": "filled",
              "type": "uint256"
            },
            {
              "internalType": "uint256",
              "name": "price",
              "type": "uint256"
            },
            {
              "internalType": "uint256",
              "name": "date",
              "type": "uint256"
            }
          ],
          "internalType": "struct Dex.Order[]",
          "name": "",
          "type": "tuple[]"
        }
      ],
      "stateMutability": "view",
      "type": "function",
      "constant": true
    },
    {
      "inputs": [
        {
          "internalType": "bytes32",
          "name": "ticker",
          "type": "bytes32"
        },
        {
          "internalType": "uint256",
          "name": "amount",
          "type": "uint256"
        },
        {
          "internalType": "uint256",
          "name": "price",
          "type": "uint256"
        },
        {
          "internalType": "enum Dex.Side",
          "name": "side",
          "type": "uint8"
        }
      ],
      "name": "createLimitOrder",
      "outputs": [],
      "stateMutability": "nonpayable",
      "type": "function"
    },
    {
      "inputs": [
        {
          "internalType": "bytes32",
          "name": "ticker",
          "type": "bytes32"
        },
        {
          "internalType": "uint256",
          "name": "amount",
          "type": "uint256"
        },
        {
          "internalType": "enum Dex.Side",
          "name": "side",
          "type": "uint8"
        }
      ],
      "name": "createMarketOrder",
      "outputs": [],
      "stateMutability": "nonpayable",
      "type": "function"
    }
  ],
  "bytecode": "0x608060405234801561001057600080fd5b5033600660006101000a81548173ffffffffffffffffffffffffffffffffffffffff021916908373ffffffffffffffffffffffffffffffffffffffff16021790555061346e806100616000396000f3fe608060405234801561001057600080fd5b50600436106100ea5760003560e01c80639776aacf1161008c578063aa6ca80811610066578063aa6ca80814610277578063c9630cb014610295578063d9c0c950146102b1578063f851a440146102cd576100ea565b80639776aacf1461020f5780639ead72221461022b578063a8d2021a1461025b576100ea565b806372ce957e116100c857806372ce957e146101745780637f2c6246146101a4578063813ad083146101c0578063904194a3146101de576100ea565b80630bb431b6146100ef5780632a58b3301461012657806346e9658b14610144575b600080fd5b61010960048036036101049190810190612974565b6102eb565b60405161011d98979695949392919061316f565b60405180910390f35b61012e610387565b60405161013b9190613154565b60405180910390f35b61015e600480360361015991908101906128e9565b61038d565b60405161016b9190612faa565b60405180910390f35b61018e6004803603610189919081019061281f565b6104dc565b60405161019b9190613154565b60405180910390f35b6101be60048036036101b99190810190612925565b610501565b005b6101c86115cb565b6040516101d59190613154565b60405180910390f35b6101f860048036036101f39190810190612884565b6115d1565b604051610206929190613009565b60405180910390f35b610229600480360361022491908101906128ad565b611615565b005b61024560048036036102409190810190612a26565b611763565b6040516102529190612fee565b60405180910390f35b61027560048036036102709190810190612a4f565b611784565b005b61027f611a3c565b60405161028c9190612fcc565b60405180910390f35b6102af60048036036102aa9190810190612a4f565b611b63565b005b6102cb60048036036102c691908101906129c3565b611d8a565b005b6102d561258a565b6040516102e29190612f2f565b60405180910390f35b6003602052826000526040600020602052816000526040600020818154811061031057fe5b906000526020600020906007020160009250925050508060000154908060010160009054906101000a900473ffffffffffffffffffffffffffffffffffffffff16908060010160149054906101000a900460ff16908060020154908060030154908060040154908060050154908060060154905088565b60045481565b60606003600084815260200190815260200160002060008360018111156103b057fe5b8152602001908152602001600020805480602002602001604051908101604052809291908181526020016000905b828210156104d0578382906000526020600020906007020160405180610100016040529081600082015481526020016001820160009054906101000a900473ffffffffffffffffffffffffffffffffffffffff1673ffffffffffffffffffffffffffffffffffffffff1673ffffffffffffffffffffffffffffffffffffffff1681526020016001820160149054906101000a900460ff16600181111561048057fe5b600181111561048b57fe5b815260200160028201548152602001600382015481526020016004820154815260200160058201548152602001600682015481525050815260200190600101906103de565b50505050905092915050565b6002602052816000526040600020602052806000526040600020600091509150505481565b82600073ffffffffffffffffffffffffffffffffffffffff1660008083815260200190815260200160002060010160009054906101000a900473ffffffffffffffffffffffffffffffffffffffff1673ffffffffffffffffffffffffffffffffffffffff1614156105a7576040517f08c379a000000000000000000000000000000000000000000000000000000000815260040161059e90613134565b60405180910390fd5b837f444149000000000000000000000000000000000000000000000000000000000081141561060b576040517f08c379a0000000000000000000000000000000000000000000000000000000008152600401610602906130d4565b60405180910390fd5b60018081111561061757fe5b83600181111561062357fe5b14156106bd5783600260003373ffffffffffffffffffffffffffffffffffffffff1673ffffffffffffffffffffffffffffffffffffffff16815260200190815260200160002060008781526020019081526020016000205410156106bc576040517f08c379a00000000000000000000000000000000000000000000000000000000081526004016106b390613114565b60405180910390fd5b5b60006003600087815260200190815260200160002060008060018111156106e057fe5b8660018111156106ec57fe5b146106f85760006106fb565b60015b600181111561070657fe5b815260200190815260200160002090506000808690505b8280549050821080156107305750600081115b1561138c57600061078484848154811061074657fe5b90600052602060002090600702016004015485858154811061076457fe5b9060005260206000209060070201600301546125b090919063ffffffff16565b905060008183116107955782610797565b815b90506107ac81846125b090919063ffffffff16565b92506107de818686815481106107be57fe5b9060005260206000209060070201600401546125fa90919063ffffffff16565b8585815481106107ea57fe5b9060005260206000209060070201600401819055503373ffffffffffffffffffffffffffffffffffffffff1685858154811061082257fe5b906000526020600020906007020160010160009054906101000a900473ffffffffffffffffffffffffffffffffffffffff1673ffffffffffffffffffffffffffffffffffffffff168b7fdb0c486e680ba8026643e6a85f8d157b5e7bcd4b32b54d564542570a9eb2041660055489898154811061089b57fe5b906000526020600020906007020160000154868b8b815481106108ba57fe5b906000526020600020906007020160050154426040516108de9594939291906131ed565b60405180910390a46001808111156108f257fe5b8860018111156108fe57fe5b1415610db35761096781600260003373ffffffffffffffffffffffffffffffffffffffff1673ffffffffffffffffffffffffffffffffffffffff16815260200190815260200160002060008d8152602001908152602001600020546125b090919063ffffffff16565b600260003373ffffffffffffffffffffffffffffffffffffffff1673ffffffffffffffffffffffffffffffffffffffff16815260200190815260200160002060008c815260200190815260200160002081905550610a6d6109ee8686815481106109cd57fe5b9060005260206000209060070201600501548361264f90919063ffffffff16565b600260003373ffffffffffffffffffffffffffffffffffffffff1673ffffffffffffffffffffffffffffffffffffffff16815260200190815260200160002060007f44414900000000000000000000000000000000000000000000000000000000008152602001908152602001600020546125fa90919063ffffffff16565b600260003373ffffffffffffffffffffffffffffffffffffffff1673ffffffffffffffffffffffffffffffffffffffff16815260200190815260200160002060007f4441490000000000000000000000000000000000000000000000000000000000815260200190815260200160002081905550610b818160026000888881548110610af557fe5b906000526020600020906007020160010160009054906101000a900473ffffffffffffffffffffffffffffffffffffffff1673ffffffffffffffffffffffffffffffffffffffff1673ffffffffffffffffffffffffffffffffffffffff16815260200190815260200160002060008d8152602001908152602001600020546125fa90919063ffffffff16565b60026000878781548110610b9157fe5b906000526020600020906007020160010160009054906101000a900473ffffffffffffffffffffffffffffffffffffffff1673ffffffffffffffffffffffffffffffffffffffff1673ffffffffffffffffffffffffffffffffffffffff16815260200190815260200160002060008c815260200190815260200160002081905550610d01610c45868681548110610c2457fe5b9060005260206000209060070201600501548361264f90919063ffffffff16565b60026000888881548110610c5557fe5b906000526020600020906007020160010160009054906101000a900473ffffffffffffffffffffffffffffffffffffffff1673ffffffffffffffffffffffffffffffffffffffff1673ffffffffffffffffffffffffffffffffffffffff16815260200190815260200160002060007f44414900000000000000000000000000000000000000000000000000000000008152602001908152602001600020546125b090919063ffffffff16565b60026000878781548110610d1157fe5b906000526020600020906007020160010160009054906101000a900473ffffffffffffffffffffffffffffffffffffffff1673ffffffffffffffffffffffffffffffffffffffff1673ffffffffffffffffffffffffffffffffffffffff16815260200190815260200160002060007f44414900000000000000000000000000000000000000000000000000000000008152602001908152602001600020819055505b60006001811115610dc057fe5b886001811115610dcc57fe5b141561135357848481548110610dde57fe5b9060005260206000209060070201600501548102600260003373ffffffffffffffffffffffffffffffffffffffff1673ffffffffffffffffffffffffffffffffffffffff16815260200190815260200160002060007f44414900000000000000000000000000000000000000000000000000000000008152602001908152602001600020541015610ea4576040517f08c379a0000000000000000000000000000000000000000000000000000000008152600401610e9b906130b4565b60405180910390fd5b610f0781600260003373ffffffffffffffffffffffffffffffffffffffff1673ffffffffffffffffffffffffffffffffffffffff16815260200190815260200160002060008d8152602001908152602001600020546125fa90919063ffffffff16565b600260003373ffffffffffffffffffffffffffffffffffffffff1673ffffffffffffffffffffffffffffffffffffffff16815260200190815260200160002060008c81526020019081526020016000208190555061100d610f8e868681548110610f6d57fe5b9060005260206000209060070201600501548361264f90919063ffffffff16565b600260003373ffffffffffffffffffffffffffffffffffffffff1673ffffffffffffffffffffffffffffffffffffffff16815260200190815260200160002060007f44414900000000000000000000000000000000000000000000000000000000008152602001908152602001600020546125b090919063ffffffff16565b600260003373ffffffffffffffffffffffffffffffffffffffff1673ffffffffffffffffffffffffffffffffffffffff16815260200190815260200160002060007f4441490000000000000000000000000000000000000000000000000000000000815260200190815260200160002081905550611121816002600088888154811061109557fe5b906000526020600020906007020160010160009054906101000a900473ffffffffffffffffffffffffffffffffffffffff1673ffffffffffffffffffffffffffffffffffffffff1673ffffffffffffffffffffffffffffffffffffffff16815260200190815260200160002060008d8152602001908152602001600020546125b090919063ffffffff16565b6002600087878154811061113157fe5b906000526020600020906007020160010160009054906101000a900473ffffffffffffffffffffffffffffffffffffffff1673ffffffffffffffffffffffffffffffffffffffff1673ffffffffffffffffffffffffffffffffffffffff16815260200190815260200160002060008c8152602001908152602001600020819055506112a16111e58686815481106111c457fe5b9060005260206000209060070201600501548361264f90919063ffffffff16565b600260008888815481106111f557fe5b906000526020600020906007020160010160009054906101000a900473ffffffffffffffffffffffffffffffffffffffff1673ffffffffffffffffffffffffffffffffffffffff1673ffffffffffffffffffffffffffffffffffffffff16815260200190815260200160002060007f44414900000000000000000000000000000000000000000000000000000000008152602001908152602001600020546125fa90919063ffffffff16565b600260008787815481106112b157fe5b906000526020600020906007020160010160009054906101000a900473ffffffffffffffffffffffffffffffffffffffff1673ffffffffffffffffffffffffffffffffffffffff1673ffffffffffffffffffffffffffffffffffffffff16815260200190815260200160002060007f44414900000000000000000000000000000000000000000000000000000000008152602001908152602001600020819055505b61136960016005546125fa90919063ffffffff16565b6005819055506113836001856125fa90919063ffffffff16565b9350505061071d565b600091505b8280549050821080156113dd57508282815481106113ab57fe5b9060005260206000209060070201600301548383815481106113c957fe5b906000526020600020906007020160040154145b156115c15760008290505b60018480549050038110156115175783600182018154811061140657fe5b906000526020600020906007020184828154811061142057fe5b9060005260206000209060070201600082015481600001556001820160009054906101000a900473ffffffffffffffffffffffffffffffffffffffff168160010160006101000a81548173ffffffffffffffffffffffffffffffffffffffff021916908373ffffffffffffffffffffffffffffffffffffffff1602179055506001820160149054906101000a900460ff168160010160146101000a81548160ff021916908360018111156114d057fe5b0217905550600282015481600201556003820154816003015560048201548160040155600582015481600501556006820154816006015590505080806001019150506113e8565b508280548061152257fe5b60019003818190600052602060002090600702016000808201600090556001820160006101000a81549073ffffffffffffffffffffffffffffffffffffffff02191690556001820160146101000a81549060ff021916905560028201600090556003820160009055600482016000905560058201600090556006820160009055505090556115ba6001836125fa90919063ffffffff16565b9150611391565b5050505050505050565b60055481565b60006020528060005260406000206000915090508060000154908060010160009054906101000a900473ffffffffffffffffffffffffffffffffffffffff16905082565b600660009054906101000a900473ffffffffffffffffffffffffffffffffffffffff1673ffffffffffffffffffffffffffffffffffffffff163373ffffffffffffffffffffffffffffffffffffffff16146116a5576040517f08c379a000000000000000000000000000000000000000000000000000000000815260040161169c90613094565b60405180910390fd5b60405180604001604052808381526020018273ffffffffffffffffffffffffffffffffffffffff168152506000808481526020019081526020016000206000820151816000015560208201518160010160006101000a81548173ffffffffffffffffffffffffffffffffffffffff021916908373ffffffffffffffffffffffffffffffffffffffff16021790555090505060018290806001815401808255809150506001900390600052602060002001600090919091909150555050565b6001818154811061177057fe5b906000526020600020016000915090505481565b80600073ffffffffffffffffffffffffffffffffffffffff1660008083815260200190815260200160002060010160009054906101000a900473ffffffffffffffffffffffffffffffffffffffff1673ffffffffffffffffffffffffffffffffffffffff16141561182a576040517f08c379a000000000000000000000000000000000000000000000000000000000815260040161182190613134565b60405180910390fd5b82600260003373ffffffffffffffffffffffffffffffffffffffff1673ffffffffffffffffffffffffffffffffffffffff16815260200190815260200160002060008481526020019081526020016000205410156118bd576040517f08c379a00000000000000000000000000000000000000000000000000000000081526004016118b490613074565b60405180910390fd5b61192083600260003373ffffffffffffffffffffffffffffffffffffffff1673ffffffffffffffffffffffffffffffffffffffff1681526020019081526020016000206000858152602001908152602001600020546125b090919063ffffffff16565b600260003373ffffffffffffffffffffffffffffffffffffffff1673ffffffffffffffffffffffffffffffffffffffff16815260200190815260200160002060008481526020019081526020016000208190555060008083815260200190815260200160002060010160009054906101000a900473ffffffffffffffffffffffffffffffffffffffff1673ffffffffffffffffffffffffffffffffffffffff1663a9059cbb33856040518363ffffffff1660e01b81526004016119e4929190612f81565b602060405180830381600087803b1580156119fe57600080fd5b505af1158015611a12573d6000803e3d6000fd5b505050506040513d601f19601f82011682018060405250611a36919081019061285b565b50505050565b606080600180549050604051908082528060200260200182016040528015611a7e57816020015b611a6b61271a565b815260200190600190039081611a635790505b50905060008090505b600180549050811015611b5b57604051806040016040528060008060018581548110611aaf57fe5b9060005260206000200154815260200190815260200160002060000154815260200160008060018581548110611ae157fe5b9060005260206000200154815260200190815260200160002060010160009054906101000a900473ffffffffffffffffffffffffffffffffffffffff1673ffffffffffffffffffffffffffffffffffffffff16815250828281518110611b4357fe5b60200260200101819052508080600101915050611a87565b508091505090565b80600073ffffffffffffffffffffffffffffffffffffffff1660008083815260200190815260200160002060010160009054906101000a900473ffffffffffffffffffffffffffffffffffffffff1673ffffffffffffffffffffffffffffffffffffffff161415611c09576040517f08c379a0000000000000000000000000000000000000000000000000000000008152600401611c0090613134565b60405180910390fd5b60008083815260200190815260200160002060010160009054906101000a900473ffffffffffffffffffffffffffffffffffffffff1673ffffffffffffffffffffffffffffffffffffffff166323b872dd3330866040518463ffffffff1660e01b8152600401611c7b93929190612f4a565b602060405180830381600087803b158015611c9557600080fd5b505af1158015611ca9573d6000803e3d6000fd5b505050506040513d601f19601f82011682018060405250611ccd919081019061285b565b50611d3183600260003373ffffffffffffffffffffffffffffffffffffffff1673ffffffffffffffffffffffffffffffffffffffff1681526020019081526020016000206000858152602001908152602001600020546125fa90919063ffffffff16565b600260003373ffffffffffffffffffffffffffffffffffffffff1673ffffffffffffffffffffffffffffffffffffffff168152602001908152602001600020600084815260200190815260200160002081905550505050565b83600073ffffffffffffffffffffffffffffffffffffffff1660008083815260200190815260200160002060010160009054906101000a900473ffffffffffffffffffffffffffffffffffffffff1673ffffffffffffffffffffffffffffffffffffffff161415611e30576040517f08c379a0000000000000000000000000000000000000000000000000000000008152600401611e2790613134565b60405180910390fd5b847f4441490000000000000000000000000000000000000000000000000000000000811415611e94576040517f08c379a0000000000000000000000000000000000000000000000000000000008152600401611e8b906130d4565b60405180910390fd5b600180811115611ea057fe5b836001811115611eac57fe5b1415611f4a5784600260003373ffffffffffffffffffffffffffffffffffffffff1673ffffffffffffffffffffffffffffffffffffffff1681526020019081526020016000206000888152602001908152602001600020541015611f45576040517f08c379a0000000000000000000000000000000000000000000000000000000008152600401611f3c90613114565b60405180910390fd5b612010565b611f5d848661264f90919063ffffffff16565b600260003373ffffffffffffffffffffffffffffffffffffffff1673ffffffffffffffffffffffffffffffffffffffff16815260200190815260200160002060007f4441490000000000000000000000000000000000000000000000000000000000815260200190815260200160002054101561200f576040517f08c379a0000000000000000000000000000000000000000000000000000000008152600401612006906130b4565b60405180910390fd5b5b600060036000888152602001908152602001600020600085600181111561203357fe5b815260200190815260200160002090508060405180610100016040528060045481526020013373ffffffffffffffffffffffffffffffffffffffff16815260200186600181111561208057fe5b8152602001898152602001888152602001600081526020018781526020014281525090806001815401808255809150506001900390600052602060002090600702016000909190919091506000820151816000015560208201518160010160006101000a81548173ffffffffffffffffffffffffffffffffffffffff021916908373ffffffffffffffffffffffffffffffffffffffff16021790555060408201518160010160146101000a81548160ff0219169083600181111561214057fe5b0217905550606082015181600201556080820151816003015560a0820151816004015560c0820151816005015560e08201518160060155505060008082805490501161218d576000612196565b60018280549050035b90505b600081111561256457600060018111156121af57fe5b8560018111156121bb57fe5b14801561220457508181815481106121cf57fe5b9060005260206000209060070201600501548260018303815481106121f057fe5b906000526020600020906007020160050154115b1561220e57612564565b60018081111561221a57fe5b85600181111561222657fe5b14801561226f575081818154811061223a57fe5b90600052602060002090600702016005015482600183038154811061225b57fe5b906000526020600020906007020160050154105b1561227957612564565b61228161274d565b82600183038154811061229057fe5b906000526020600020906007020160405180610100016040529081600082015481526020016001820160009054906101000a900473ffffffffffffffffffffffffffffffffffffffff1673ffffffffffffffffffffffffffffffffffffffff1673ffffffffffffffffffffffffffffffffffffffff1681526020016001820160149054906101000a900460ff16600181111561232857fe5b600181111561233357fe5b815260200160028201548152602001600382015481526020016004820154815260200160058201548152602001600682015481525050905082828154811061237757fe5b906000526020600020906007020183600184038154811061239457fe5b9060005260206000209060070201600082015481600001556001820160009054906101000a900473ffffffffffffffffffffffffffffffffffffffff168160010160006101000a81548173ffffffffffffffffffffffffffffffffffffffff021916908373ffffffffffffffffffffffffffffffffffffffff1602179055506001820160149054906101000a900460ff168160010160146101000a81548160ff0219169083600181111561244457fe5b021790555060028201548160020155600382015481600301556004820154816004015560058201548160050155600682015481600601559050508083838154811061248b57fe5b90600052602060002090600702016000820151816000015560208201518160010160006101000a81548173ffffffffffffffffffffffffffffffffffffffff021916908373ffffffffffffffffffffffffffffffffffffffff16021790555060408201518160010160146101000a81548160ff0219169083600181111561250e57fe5b0217905550606082015181600201556080820151816003015560a0820151816004015560c0820151816005015560e0820151816006015590505061255c6001836125b090919063ffffffff16565b915050612199565b61257a60016004546125fa90919063ffffffff16565b6004819055505050505050505050565b600660009054906101000a900473ffffffffffffffffffffffffffffffffffffffff1681565b60006125f283836040518060400160405280601e81526020017f536166654d6174683a207375627472616374696f6e206f766572666c6f7700008152506126bf565b905092915050565b600080828401905083811015612645576040517f08c379a000000000000000000000000000000000000000000000000000000000815260040161263c90613054565b60405180910390fd5b8091505092915050565b60008083141561266257600090506126b9565b600082840290508284828161267357fe5b04146126b4576040517f08c379a00000000000000000000000000000000000000000000000000000000081526004016126ab906130f4565b60405180910390fd5b809150505b92915050565b6000838311158290612707576040517f08c379a00000000000000000000000000000000000000000000000000000000081526004016126fe9190613032565b60405180910390fd5b5060008385039050809150509392505050565b604051806040016040528060008019168152602001600073ffffffffffffffffffffffffffffffffffffffff1681525090565b60405180610100016040528060008152602001600073ffffffffffffffffffffffffffffffffffffffff1681526020016000600181111561278a57fe5b815260200160008019168152602001600081526020016000815260200160008152602001600081525090565b6000813590506127c5816133cc565b92915050565b6000815190506127da816133e3565b92915050565b6000813590506127ef816133fa565b92915050565b60008135905061280481613411565b92915050565b60008135905061281981613421565b92915050565b6000806040838503121561283257600080fd5b6000612840858286016127b6565b9250506020612851858286016127e0565b9150509250929050565b60006020828403121561286d57600080fd5b600061287b848285016127cb565b91505092915050565b60006020828403121561289657600080fd5b60006128a4848285016127e0565b91505092915050565b600080604083850312156128c057600080fd5b60006128ce858286016127e0565b92505060206128df858286016127b6565b9150509250929050565b600080604083850312156128fc57600080fd5b600061290a858286016127e0565b925050602061291b858286016127f5565b9150509250929050565b60008060006060848603121561293a57600080fd5b6000612948868287016127e0565b93505060206129598682870161280a565b925050604061296a868287016127f5565b9150509250925092565b60008060006060848603121561298957600080fd5b6000612997868287016127e0565b93505060206129a88682870161280a565b92505060406129b98682870161280a565b9150509250925092565b600080600080608085870312156129d957600080fd5b60006129e7878288016127e0565b94505060206129f88782880161280a565b9350506040612a098782880161280a565b9250506060612a1a878288016127f5565b91505092959194509250565b600060208284031215612a3857600080fd5b6000612a468482850161280a565b91505092915050565b60008060408385031215612a6257600080fd5b6000612a708582860161280a565b9250506020612a81858286016127e0565b9150509250929050565b6000612a978383612e40565b6101008301905092915050565b6000612ab08383612ee2565b60408301905092915050565b612ac581613333565b82525050565b612ad4816132ce565b82525050565b612ae3816132ce565b82525050565b6000612af482613260565b612afe818561329b565b9350612b0983613240565b8060005b83811015612b3a578151612b218882612a8b565b9750612b2c83613281565b925050600181019050612b0d565b5085935050505092915050565b6000612b528261326b565b612b5c81856132ac565b9350612b6783613250565b8060005b83811015612b98578151612b7f8882612aa4565b9750612b8a8361328e565b925050600181019050612b6b565b5085935050505092915050565b612bae816132ec565b82525050565b612bbd816132ec565b82525050565b612bcc81613345565b82525050565b612bdb81613345565b82525050565b6000612bec82613276565b612bf681856132bd565b9350612c0681856020860161337b565b612c0f816133ae565b840191505092915050565b6000612c27601b836132bd565b91507f536166654d6174683a206164646974696f6e206f766572666c6f7700000000006000830152602082019050919050565b6000612c67600f836132bd565b91507f62616c616e636520746f6f206c6f7700000000000000000000000000000000006000830152602082019050919050565b6000612ca7600a836132bd565b91507f6f6e6c792061646d696e000000000000000000000000000000000000000000006000830152602082019050919050565b6000612ce76013836132bd565b91507f4441492062616c616e636520746f6f206c6f77000000000000000000000000006000830152602082019050919050565b6000612d276010836132bd565b91507f63616e6e6f7420747261646520444149000000000000000000000000000000006000830152602082019050919050565b6000612d676021836132bd565b91507f536166654d6174683a206d756c7469706c69636174696f6e206f766572666c6f60008301527f77000000000000000000000000000000000000000000000000000000000000006020830152604082019050919050565b6000612dcd6015836132bd565b91507f746f6b656e2062616c616e636520746f6f206c6f7700000000000000000000006000830152602082019050919050565b6000612e0d6014836132bd565b91507f746f6b656e20646f6573206e6f742065786973740000000000000000000000006000830152602082019050919050565b61010082016000820151612e576000850182612f11565b506020820151612e6a6020850182612acb565b506040820151612e7d6040850182612bc3565b506060820151612e906060850182612ba5565b506080820151612ea36080850182612f11565b5060a0820151612eb660a0850182612f11565b5060c0820151612ec960c0850182612f11565b5060e0820151612edc60e0850182612f11565b50505050565b604082016000820151612ef86000850182612ba5565b506020820151612f0b6020850182612acb565b50505050565b612f1a81613329565b82525050565b612f2981613329565b82525050565b6000602082019050612f446000830184612ada565b92915050565b6000606082019050612f5f6000830186612abc565b612f6c6020830185612ada565b612f796040830184612f20565b949350505050565b6000604082019050612f966000830185612abc565b612fa36020830184612f20565b9392505050565b60006020820190508181036000830152612fc48184612ae9565b905092915050565b60006020820190508181036000830152612fe68184612b47565b905092915050565b60006020820190506130036000830184612bb4565b92915050565b600060408201905061301e6000830185612bb4565b61302b6020830184612ada565b9392505050565b6000602082019050818103600083015261304c8184612be1565b905092915050565b6000602082019050818103600083015261306d81612c1a565b9050919050565b6000602082019050818103600083015261308d81612c5a565b9050919050565b600060208201905081810360008301526130ad81612c9a565b9050919050565b600060208201905081810360008301526130cd81612cda565b9050919050565b600060208201905081810360008301526130ed81612d1a565b9050919050565b6000602082019050818103600083015261310d81612d5a565b9050919050565b6000602082019050818103600083015261312d81612dc0565b9050919050565b6000602082019050818103600083015261314d81612e00565b9050919050565b60006020820190506131696000830184612f20565b92915050565b600061010082019050613185600083018b612f20565b613192602083018a612ada565b61319f6040830189612bd2565b6131ac6060830188612bb4565b6131b96080830187612f20565b6131c660a0830186612f20565b6131d360c0830185612f20565b6131e060e0830184612f20565b9998505050505050505050565b600060a0820190506132026000830188612f20565b61320f6020830187612f20565b61321c6040830186612f20565b6132296060830185612f20565b6132366080830184612f20565b9695505050505050565b6000819050602082019050919050565b6000819050602082019050919050565b600081519050919050565b600081519050919050565b600081519050919050565b6000602082019050919050565b6000602082019050919050565b600082825260208201905092915050565b600082825260208201905092915050565b600082825260208201905092915050565b60006132d982613309565b9050919050565b60008115159050919050565b6000819050919050565b6000819050613304826133bf565b919050565b600073ffffffffffffffffffffffffffffffffffffffff82169050919050565b6000819050919050565b600061333e82613357565b9050919050565b6000613350826132f6565b9050919050565b600061336282613369565b9050919050565b600061337482613309565b9050919050565b60005b8381101561339957808201518184015260208101905061337e565b838111156133a8576000848401525b50505050565b6000601f19601f8301169050919050565b600281106133c957fe5b50565b6133d5816132ce565b81146133e057600080fd5b50565b6133ec816132e0565b81146133f757600080fd5b50565b613403816132ec565b811461340e57600080fd5b50565b6002811061341e57600080fd5b50565b61342a81613329565b811461343557600080fd5b5056fea264697066735822122001aa4f256652b1a91e0aa2bacca81b384882607388aa1577c667b2059a1cdb4364736f6c63430006030033",
  "source": "pragma solidity 0.6.3;\npragma experimental ABIEncoderV2;\n\nimport \"@openzeppelin/contracts/token/ERC20/IERC20.sol\";\nimport \"@openzeppelin/contracts/math/SafeMath.sol\";\n\ncontract Dex {\n    using SafeMath for uint256;\n\n    bytes32 constant DAI = bytes32(\"DAI\");\n    enum Side {BUY, SELL}\n\n    struct Token {\n        bytes32 ticker;\n        address tokenAddress;\n    }\n\n    struct Order {\n        uint256 id;\n        address trader;\n        Side side;\n        bytes32 ticker;\n        uint256 amount;\n        uint256 filled;\n        uint256 price;\n        uint256 date;\n    }\n\n    // Registry:\n    // ticker => Token\n    mapping(bytes32 => Token) public tokens;\n    // ticker[]\n    bytes32[] public tokenList;\n\n    // Wallet: user => ticker => amount\n    mapping(address => mapping(bytes32 => uint256)) public traderBalances;\n\n    // ticker => Side => Order[] (sorted: BUY DESC, SELL ASC)\n    mapping(bytes32 => mapping(uint256 => Order[])) public orderBook;\n    uint256 public nextOrderId;\n    uint256 public nextTradeId;\n\n    address public admin;\n\n    event NewTrade(\n        uint256 tradeId,\n        uint256 orderId,\n        bytes32 indexed ticker,\n        address indexed trader1,\n        address indexed trader2,\n        uint256 amount,\n        uint256 price,\n        uint256 date\n    );\n\n    constructor() public {\n        admin = msg.sender;\n    }\n\n    // Registry: Add new token to the Dex's token registry\n    function addToken(bytes32 ticker, address tokenAddress)\n        external\n        onlyAdmin()\n    {\n        tokens[ticker] = Token(ticker, tokenAddress);\n        tokenList.push(ticker);\n    }\n\n    // Registry: Get the list of tokens that can be traded\n    function getTokens() external view returns (Token[] memory) {\n        Token[] memory _tokens = new Token[](tokenList.length);\n        for (uint256 i = 0; i < tokenList.length; i++) {\n            _tokens[i] = Token(\n                tokens[tokenList[i]].ticker,\n                tokens[tokenList[i]].tokenAddress\n            );\n        }\n        return _tokens;\n    }\n\n    // Wallet: User to deposit token into the dex\n    function deposit(uint256 amount, bytes32 ticker)\n        external\n        tokenExist(ticker)\n    {\n        IERC20(tokens[ticker].tokenAddress).transferFrom(\n            msg.sender,\n            address(this),\n            amount\n        );\n\n        traderBalances[msg.sender][ticker] = traderBalances[msg.sender][ticker]\n            .add(amount);\n    }\n\n    // Wallet: User to withdraw their token from the dex\n    function withdraw(uint256 amount, bytes32 ticker)\n        external\n        tokenExist(ticker)\n    {\n        require(\n            traderBalances[msg.sender][ticker] >= amount,\n            \"balance too low\"\n        );\n\n        traderBalances[msg.sender][ticker] = traderBalances[msg.sender][ticker]\n            .sub(amount);\n        IERC20(tokens[ticker].tokenAddress).transfer(msg.sender, amount);\n    }\n\n    // Trading: List of limit orders for a ticker and side\n    function getOrders(bytes32 ticker, Side side)\n        external\n        view\n        returns (Order[] memory)\n    {\n        return orderBook[ticker][uint256(side)];\n    }\n\n    // Trading\n    function createLimitOrder(\n        bytes32 ticker,\n        uint256 amount,\n        uint256 price,\n        Side side\n    ) external tokenExist(ticker) tokenIsNotDai(ticker) {\n        if (side == Side.SELL) {\n            require(\n                traderBalances[msg.sender][ticker] >= amount,\n                \"token balance too low\"\n            );\n        } else {\n            require(\n                traderBalances[msg.sender][DAI] >= amount.mul(price),\n                \"DAI balance too low\"\n            );\n        }\n\n        Order[] storage orders = orderBook[ticker][uint256(side)];\n        orders.push(\n            Order(nextOrderId, msg.sender, side, ticker, amount, 0, price, now)\n        );\n\n        // bubble sort (BUY DESC, SELL ASC)\n        uint256 i = orders.length > 0 ? orders.length - 1 : 0;\n        while (i > 0) {\n            if (side == Side.BUY && orders[i - 1].price > orders[i].price) {\n                break;\n            }\n            if (side == Side.SELL && orders[i - 1].price < orders[i].price) {\n                break;\n            }\n            Order memory order = orders[i - 1];\n            orders[i - 1] = orders[i];\n            orders[i] = order;\n            i = i.sub(1);\n        }\n\n        nextOrderId = nextOrderId.add(1);\n    }\n\n    // Trading\n    function createMarketOrder(\n        bytes32 ticker,\n        uint256 amount,\n        Side side\n    ) external tokenExist(ticker) tokenIsNotDai(ticker) {\n        if (side == Side.SELL) {\n            require(\n                traderBalances[msg.sender][ticker] >= amount,\n                \"token balance too low\"\n            );\n        }\n        Order[] storage orders = orderBook[ticker][uint256(\n            side == Side.BUY ? Side.SELL : Side.BUY\n        )];\n\n        // Fill market order with existing limit orders\n        uint256 i;\n        uint256 remaining = amount;\n        while (i < orders.length && remaining > 0) {\n            uint256 available = orders[i].amount.sub(orders[i].filled);\n            uint256 matched = (remaining > available) ? available : remaining;\n            remaining = remaining.sub(matched);\n            orders[i].filled = orders[i].filled.add(matched);\n            emit NewTrade(\n                nextTradeId,\n                orders[i].id,\n                ticker,\n                orders[i].trader,\n                msg.sender,\n                matched,\n                orders[i].price,\n                now\n            );\n\n            if (side == Side.SELL) {\n                traderBalances[msg.sender][ticker] = traderBalances[msg\n                    .sender][ticker]\n                    .sub(matched);\n                traderBalances[msg.sender][DAI] = traderBalances[msg\n                    .sender][DAI]\n                    .add(matched.mul(orders[i].price));\n\n                traderBalances[orders[i]\n                    .trader][ticker] = traderBalances[orders[i].trader][ticker]\n                    .add(matched);\n                traderBalances[orders[i].trader][DAI] = traderBalances[orders[i]\n                    .trader][DAI]\n                    .sub(matched.mul(orders[i].price));\n            }\n            if (side == Side.BUY) {\n                require(\n                    traderBalances[msg.sender][DAI] >=\n                        matched * orders[i].price,\n                    \"DAI balance too low\"\n                );\n                traderBalances[msg.sender][ticker] = traderBalances[msg\n                    .sender][ticker]\n                    .add(matched);\n                traderBalances[msg.sender][DAI] = traderBalances[msg\n                    .sender][DAI]\n                    .sub(matched.mul(orders[i].price));\n\n                traderBalances[orders[i]\n                    .trader][ticker] = traderBalances[orders[i].trader][ticker]\n                    .sub(matched);\n                traderBalances[orders[i].trader][DAI] = traderBalances[orders[i]\n                    .trader][DAI]\n                    .add(matched.mul(orders[i].price));\n            }\n            nextTradeId = nextTradeId.add(1);\n            i = i.add(1);\n        }\n\n        // Prune order book of fully filled limit orders\n        i = 0;\n        while (i < orders.length && orders[i].filled == orders[i].amount) {\n            for (uint256 j = i; j < orders.length - 1; j++) {\n                orders[j] = orders[j + 1];\n            }\n            orders.pop();\n            i = i.add(1);\n        }\n    }\n\n    modifier tokenIsNotDai(bytes32 ticker) {\n        require(ticker != DAI, \"cannot trade DAI\");\n        _;\n    }\n\n    modifier tokenExist(bytes32 ticker) {\n        require(\n            tokens[ticker].tokenAddress != address(0),\n            \"token does not exist\"\n        );\n        _;\n    }\n\n    modifier onlyAdmin() {\n        require(msg.sender == admin, \"only admin\");\n        _;\n    }\n}\n",
  "sourcePath": "/Users/tc/dev/dex_erc20/contracts/Dex.sol",
  "compiler": {
    "name": "solc",
    "version": "0.6.3+commit.8dda9521.Emscripten.clang"
  },
  "schemaVersion": "3.3.2",
  "updatedAt": "2020-12-23T11:13:48.492Z",
  "networkType": "ethereum",
  "devdoc": {
    "methods": {}
  },
  "userdoc": {
    "methods": {}
  }
}